{"abi":[{"type":"constructor","inputs":[],"stateMutability":"nonpayable"},{"type":"function","name":"collect","inputs":[],"outputs":[{"name":"","type":"bytes","internalType":"bytes"}],"stateMutability":"view"},{"type":"function","name":"lastUpdatedBlock","inputs":[],"outputs":[{"name":"","type":"uint256","internalType":"uint256"}],"stateMutability":"view"},{"type":"function","name":"maxStallBlocks","inputs":[],"outputs":[{"name":"","type":"uint256","internalType":"uint256"}],"stateMutability":"view"},{"type":"function","name":"shouldRespond","inputs":[{"name":"data","type":"bytes[]","internalType":"bytes[]"}],"outputs":[{"name":"","type":"bool","internalType":"bool"},{"name":"","type":"bytes","internalType":"bytes"}],"stateMutability":"pure"},{"type":"function","name":"target","inputs":[],"outputs":[{"name":"","type":"address","internalType":"address"}],"stateMutability":"view"},{"type":"function","name":"thresholdPercent","inputs":[],"outputs":[{"name":"","type":"uint256","internalType":"uint256"}],"stateMutability":"view"}],"bytecode":{"object":"0x6080604052348015600e575f5ffd5b50435f81905550610898806100225f395ff3fe608060405234801561000f575f5ffd5b5060043610610060575f3560e01c806344e6e4ce14610064578063790cafbe14610095578063cfc16cea146100b3578063d4b83992146100d1578063e5225381146100ef578063f90ce5ba1461010d575b5f5ffd5b61007e600480360381019061007991906103ae565b61012b565b60405161008c929190610483565b60405180910390f35b61009d6102ca565b6040516100aa91906104c9565b60405180910390f35b6100bb6102cf565b6040516100c891906104c9565b60405180910390f35b6100d96102d4565b6040516100e69190610521565b60405180910390f35b6100f76102ec565b604051610104919061053a565b60405180910390f35b610115610340565b60405161012291906104c9565b60405180910390f35b5f6060600284849050101561017a575f6040518060400160405280601181526020017f496e73756666696369656e742064617461000000000000000000000000000000815250915091506102c3565b5f5f85855f81811061018f5761018e61055a565b5b90506020028101906101a19190610593565b8101906101ae919061061f565b915091505f5f878760018181106101c8576101c761055a565b5b90506020028101906101da9190610593565b8101906101e7919061061f565b915091505f8285116102045784836101ff919061068a565b610211565b8285610210919061068a565b5b90505f8360648361022291906106bd565b61022c919061072b565b905060028110610265576001604051602001610247906107b5565b604051602081830303815290604052975097505050505050506102c3565b600a8386610273919061068a565b11156102a857600160405160200161028a9061081d565b604051602081830303815290604052975097505050505050506102c3565b5f60405180602001604052805f815250975097505050505050505b9250929050565b600a81565b600281565b73db34aaaa0a0495dc47c4898391d4d9cf6957d0f181565b606073db34aaaa0a0495dc47c4898391d4d9cf6957d0f173ffffffffffffffffffffffffffffffffffffffff16314360405160200161032c92919061083b565b604051602081830303815290604052905090565b5f5481565b5f5ffd5b5f5ffd5b5f5ffd5b5f5ffd5b5f5ffd5b5f5f83601f84011261036e5761036d61034d565b5b8235905067ffffffffffffffff81111561038b5761038a610351565b5b6020830191508360208202830111156103a7576103a6610355565b5b9250929050565b5f5f602083850312156103c4576103c3610345565b5b5f83013567ffffffffffffffff8111156103e1576103e0610349565b5b6103ed85828601610359565b92509250509250929050565b5f8115159050919050565b61040d816103f9565b82525050565b5f81519050919050565b5f82825260208201905092915050565b8281835e5f83830152505050565b5f601f19601f8301169050919050565b5f61045582610413565b61045f818561041d565b935061046f81856020860161042d565b6104788161043b565b840191505092915050565b5f6040820190506104965f830185610404565b81810360208301526104a8818461044b565b90509392505050565b5f819050919050565b6104c3816104b1565b82525050565b5f6020820190506104dc5f8301846104ba565b92915050565b5f73ffffffffffffffffffffffffffffffffffffffff82169050919050565b5f61050b826104e2565b9050919050565b61051b81610501565b82525050565b5f6020820190506105345f830184610512565b92915050565b5f6020820190508181035f830152610552818461044b565b905092915050565b7f4e487b71000000000000000000000000000000000000000000000000000000005f52603260045260245ffd5b5f5ffd5b5f5ffd5b5f5ffd5b5f5f833560016020038436030381126105af576105ae610587565b5b80840192508235915067ffffffffffffffff8211156105d1576105d061058b565b5b6020830192506001820236038313156105ed576105ec61058f565b5b509250929050565b6105fe816104b1565b8114610608575f5ffd5b50565b5f81359050610619816105f5565b92915050565b5f5f6040838503121561063557610634610345565b5b5f6106428582860161060b565b92505060206106538582860161060b565b9150509250929050565b7f4e487b71000000000000000000000000000000000000000000000000000000005f52601160045260245ffd5b5f610694826104b1565b915061069f836104b1565b92508282039050818111156106b7576106b661065d565b5b92915050565b5f6106c7826104b1565b91506106d2836104b1565b92508282026106e0816104b1565b915082820484148315176106f7576106f661065d565b5b5092915050565b7f4e487b71000000000000000000000000000000000000000000000000000000005f52601260045260245ffd5b5f610735826104b1565b9150610740836104b1565b9250826107505761074f6106fe565b5b828204905092915050565b5f82825260208201905092915050565b7f42616c616e636520646576696174696f6e203e3d2032250000000000000000005f82015250565b5f61079f60178361075b565b91506107aa8261076b565b602082019050919050565b5f6020820190508181035f8301526107cc81610793565b9050919050565b7f54726170206d6179206265207374616c6520283e313020626c6f636b732900005f82015250565b5f610807601e8361075b565b9150610812826107d3565b602082019050919050565b5f6020820190508181035f830152610834816107fb565b9050919050565b5f60408201905061084e5f8301856104ba565b61085b60208301846104ba565b939250505056fea2646970667358221220de10277ed382aa8da157163f03eeb7d9909fb95beb9e49d8db77db75296155a764736f6c634300081e0033","linkReferences":{}},"methodIdentifiers":{"collect()":"e5225381","lastUpdatedBlock()":"f90ce5ba","maxStallBlocks()":"790cafbe","shouldRespond(bytes[])":"44e6e4ce","target()":"d4b83992","thresholdPercent()":"cfc16cea"},"id":0}